:0400000018EF12F0F3
:08000800046ED8CF05F0E0CF33
:1000100006F00001E9CF0CF0EACF07F0E1CF08F0DD
:10002000E2CF09F0D9CF0AF0DACF0BF0F3CF12F01C
:10003000F4CF13F0FACF14F000C00EF001C00FF0AF
:1000400002C010F003C011F09DA02AEF00F09EB096
:1000500021EF03F09DA230EF00F09EB249EF03F0D4
:10006000F2A836EF00F0F2B256EF03F0F0A63CEF44
:1000700000F0F0B05CEF03F0F0A842EF00F0F0B257
:1000800059EF03F09DAC48EF00F09EBC1EEF03F06B
:100090009DAA4EEF00F09EBA5FEF03F00EC000F095
:1000A0000FC001F010C002F011C003F00CC0E9FF56
:1000B00007C0EAFF078E08C0E1FF09C0E2FF0AC0DF
:1000C000D9FF0BC0DAFF12C0F3FF13C0F4FF14C056
:1000D000FAFF045006C0E0FF05C0D8FF1000F2CFC1
:1000E0000DF0F29EF76AF80FF66E000EF722090087
:1000F000F5500DBEF28E1200524541445920202089
:1001000020202020202020202020202020202020EF
:10011000202020202020546573742049443D000095
:10012000F2CF0DF0F29EF76A3A0FF66E010EF7224B
:100130000900F5500DBEF28E12004143515549524F
:10014000494E472044415441202020202020202097
:100150002020202020202020546573742049443D15
:100160000000F2CF0DF0F29EF76A7C0FF66E010EE2
:10017000F7220900F5500DBEF28E120053454E4491
:10018000494E4720544F205043202020202020203B
:100190002020202020202020202054657374204916
:1001A000443D0000F2CF0DF0F29EF76ABE0FF66EEE
:1001B000010EF7220900F5500DBEF28E12004552D5
:1001C0004153494E47204D454D4F52592020202044
:1001D00020202020202020202020202054657374FF
:1001E0002049443D0000F2CF0DF0F29EF76A000F67
:1001F000F66E020EF7220900F5500DBEF28E1200C7
:10020000434F4E454354494E4720544F20504320BE
:100210002020202020202020202020202020546565
:1002200073742049443D0000F2CF0DF0F29EF76A4E
:10023000420FF66E020EF7220900F5500DBEF28E47
:1002400012005043203D204F6E6C696E65202020C7
:10025000202020202020546573742044757261741E
:10026000696F6E203D20202020730000F2CF0DF03A
:10027000F29EF76A860FF66E020EF7220900F5501D
:100280000DBEF28E12005043203D204F66666C6911
:100290006E65202020202020202054657374204487
:1002A00075726174696F6E203D20202020730000FC
:1002B000F2CF0DF0F29EF76ACA0FF66E020EF72229
:1002C0000900F5500DBEF28E12004D656D6F72790A
:1002D000203D2020202520202020202020202020FC
:1002E0002020202042617474657279203D202020F6
:1002F00020250000F2CF0DF0F29EF76A0E0FF66E89
:10030000030EF7220900F5500DBEF28E12002020D8
:100310004B732F73202020202020206F686D202019
:10032000202020202020202020487A20202020204B
:100330002020202020200000F2CF0DF0F29EF76A4E
:10034000520FF66E030EF7220900F5500DBEF28E25
:100350001200202020202020202020202020446166
:100360007461204C6F676765722049443A00F2CF90
:100370000DF0F29EF76A880FF66E030EF722090061
:10038000F5500DBEF28E12004D454E553A202020FC
:10039000202020312E41637175697265204461749B
:1003A000612020202020202020202020202020200C
:1003B0000000F2CF0DF0F29EF76ACC0FF66E030E3E
:1003C000F7220900F5500DBEF28E120020202020E9
:1003D00020202020202020322E436F6E6E65637413
:1003E00020746F2050432020202020202020202017
:1003F000202020200000F2CF0DF0F29EF76A100FAF
:10040000F66E040EF7220900F5500DBEF28E1200B2
:100410002020202020202020202020332E53656EF5
:10042000642044617461202020202020202020208E
:1004300020202020202020200000F2CF0DF0F29E6E
:10044000F76A540FF66E040EF7220900F5500DBE40
:10045000F28E120020202020202020202020203476
:100460002E4572617365204D656D6F727920202075
:100470002020202020202020202020200000F2CF3B
:100480000DF0F29EF76A980FF66E040EF72209003F
:10049000F5500DBEF28E1200556E636F6E6E656381
:1004A000746564202020202020202020202020206F
:1004B0002000F2CF0DF0F29EF76ACC0FF66E040E1C
:1004C000F7220900F5500DBEF28E12004D454E5533
:1004D0003A2020202020204572617365204D656DF3
:1004E0006F72793F202020202020202020202020F3
:1004F000202020200000F2CF0DF0F29EF76A100FAE
:10050000F66E050EF7220900F5500DBEF28E1200B0
:10051000202020202020202020203E312E4E6F2021
:1005200020202020202020202020202020202020CB
:1005300020202020202020200000F2CF0DF0F29E6D
:10054000F76A540FF66E050EF7220900F5500DBE3E
:10055000F28E120020202020202020202020203277
:100560002E596573202020202020202020202020AC
:100570002020202020202020202020200000F2CF3A
:100580000DF0F29EF76A980FF66E050EF72209003D
:10059000F5500DBEF28E12002020202020202020B9
:1005A000202020202020202020202020202020204B
:1005B000202020202020202020202020202020203B
:1005C0000000F2CF0DF0F29EF76ADC0FF66E050E1A
:1005D000F7220900F5500DBEF28E120053656E74BD
:1005E000202020202020202020202020202020200B
:1005F000202020202000F2CF0DF0F29EF76A100F8D
:10060000F66E060EF7220900F5500DBEF28E1200AE
:100610004572726F7221212120202020202020206D
:10062000202020202020202020004C6F676765724A
:100630002062792053616A6A616400009E9C4EEFDB
:1006400000F03C0ECF6EB00ECE6E1C2A1C5032084D
:100650000AE11C6A100E255CFA0F05E2060F36EF60
:1006600003F04D8400D09E904EEF00F0E824F76A2E
:10067000F736870FF66E060EF7220A00F550FA6E6F
:100680000800F550F96E62066206620662066206AE
:1006900062061D2A1D50320806E11D6AC284C2B4DA
:1006A000FED7C4CF35F09E924EEF00F0F2924EEF9F
:1006B00000F0F0924EEF00F0F0904EEF00F09EAAA6
:1006C000FED7AE501F6A1E6E1E361F361E361F36F0
:1006D0001E361F361E361F36F00E1E164D809E9A91
:1006E0004EEF00F0010EEA6EAA0EE96EEF500DE03B
:1006F000020E016E006A002EFED7012EFBD7A70E58
:10070000006E002EFED7EF2EF3D7000C9EA8FED76A
:100710000101AA51AD6EACA2FED7160E006E002EDE
:10072000FED700D00001000C0900F5520CE0F6CF16
:1007300095F0F7CF96F0F5CFAAF1E8DF95C0F6FF78
:1007400096C0F7FFF1D79DEF12F0A56BA66B010ED7
:10075000A76FDA6AD96AAA6B9D0EA96FEA6AA10E21
:10076000E96EAAC0E2FFA9C0E1FFA7C0A8F0D89037
:10077000E550EE02F350A523F450A623A82FF7D797
:10078000A5C0DEFFA6C0A5F0A66BD8B0A62BA92BEE
:10079000D8B4AA2BA72BA7510508E0E1000C006AEA
:1007A000016A026A036AD36BD46BD56BD66BD251E4
:1007B000D111D011CF112CE0200ED76FD890CB37AC
:1007C000CC37CD37CE37D337D437D537D637D251CC
:1007D000D65D08E1D151D55D05E1D051D45D02E18E
:1007E000CF51D35D0FE3CF51D35FD051D8A0D03DCF
:1007F000D45FD151D8A0D13DD55FD251D8A0D23D40
:10080000D65FD8800036013602360336D72FD6D7CA
:10081000EA6AD30EE96E000CF2CF95F0F29E020E5A
:10082000A96EA69CA69EA680A85095BFF28E236AAC
:10083000226A216A206E22C099F021C098F020C05F
:1008400097F0966BF2CF9AF0F29E010EA96EA69CDD
:10085000A69EA680A8509ABFF28E9625206E000E06
:100860009721216E000E9821226E000E9921236E91
:1008700022C099F021C098F020C097F0966BF2CF7B
:100880009AF0F29EA96AA69CA69EA680A8509ABF3E
:10089000F28E9625206E000E9721216E000E982173
:1008A000226E000E9921236EF2CF95F0F29E050E76
:1008B000A96EA69CA69EA680A85095BFF28E556AEA
:1008C000546A536A526E54C099F053C098F052C0A3
:1008D00097F0966BF2CF9AF0F29E040EA96EA69C4A
:1008E000A69EA680A8509ABFF28E9625526E000E44
:1008F0009721536E000E9821546E000E9921556E6B
:1009000054C099F053C098F052C097F0966BF2CF54
:100910009AF0F29E030EA96EA69CA69EA680A850F1
:100920009ABFF28E9625526E000E9721536E000EDE
:100930009821546E000E9921556EF2CF95F0F29EDB
:10094000070EA96EA69CA69EA680A85095BFF28E03
:100950002F6A2E6E2EC096F0956BF2CF97F0F29E16
:10096000060EA96EA69CA69EA680A85097BFF28EE2
:1009700095252E6E000E96212F6EF2CF95F0F29EE9
:10098000010EA96EA69CA69EA680A85095BFF28EC9
:10099000F80B2A6E2B6A2C6A2D6A2D322C322B32E0
:1009A0002A322D322C322B322A322D322C322B325B
:1009B0002A321F0E2D16F2CF95F0F29E020EA96E6E
:1009C000A69CA69EA680A85095BFF28E296A286A8A
:1009D000276A266E2050070B956F966B976B986B66
:1009E000952D09D0965307E1975305E1985303E1FC
:1009F000100E366E23D02050070B956F966B976BB9
:100A0000986B9551030809E1965307E1975305E167
:100A1000985303E1080E366E11D02050070B956FE6
:100A2000966B976B986B9551070808E1965306E112
:100A3000975304E1985302E1010E366E2050180BD3
:100A4000956F966B976B986B95530DE196530BE1F1
:100A5000975309E1985307E13E6A3D6A010E3C6EE7
:100A6000900E3B6E15D02050180B956F966B976BC0
:100A7000986B955108080CE196530AE1975308E1E9
:100A8000985306E13E6A3D6A0F0E3C6EA00E3B6E27
:100A90002050200B956F966B976B986B95530DE1DB
:100AA00096530BE1975309E1985307E13A6A396A83
:100AB000010E386E440E376E14D02050200B956F07
:100AC000966B976B986B955120080BE1965309E153
:100AD000975307E1985305E13A6A396A386A320E4A
:100AE000376E52505E5C956F53505F58966F5450FE
:100AF0006059976F55506159986FA06F97C09FF0DC
:100B000096C09EF095C09DF0A46BA36BA26B640E83
:100B1000A16F1BDE03C098F002C097F001C096F0F1
:100B200000C095F003C0CEF002C0CDF001C0CCF003
:100B300000C0CBF061C0D2F060C0D1F05FC0D0F097
:100B40005EC0CFF02CDE00C034F0A1EF12F0010E39
:100B50000101AA6F0001C6DD0101A831AC6FA73108
:100B6000AB6FAC33AB33AC33AB33AC33AB330F0E17
:100B7000AC17AB51F00BA96FA9C1AAF10001C6DDFA
:100B8000010E0101AA6F0001ADDD0101A831AC6FBA
:100B9000A731AB6FAC33AB33AC33AB33AC33AB332C
:100BA0000F0EAC17AB510F0BA96FA9C1AAF1000131
:100BB000ADDD010E0101AA6F000194DD0101A75115
:100BC0000F0BA96FA9C1AAF10001A0DD010E01015F
:100BD000AA6F000187DD0101A831AD6FA731AC6FAD
:100BE000A631AB6FAD33AC33AB33AD33AC33AB33DA
:100BF000AD33AC33AB330F0EAD17AB510F0BA96F49
:100C0000A9C1AAF1000182DD010E0101AA6F000154
:100C100069DD0101A6510F0BA96FA9C1AAF100015D
:100C200075DD010E0101AA6F00015CDD0101A83133
:100C3000AE6FA731AD6FA631AC6FA531AB6FAE33E0
:100C4000AD33AC33AB33AE33AD33AC33AB33AE33A8
:100C5000AD33AC33AB330F0EAE17AB510F0BA96FE7
:100C6000A9C1AAF1000152DD010E0101AA6F000124
:100C700039DD0101A5510F0BA96FA9C1AAF100012E
:100C800045DD050E0101AA6F00012CDD000C236A71
:100C9000226A216A206A362C03D0070E20120AD05D
:100CA0003650080803E1030E201204D03650100815
:100CB00001E120803B50A00808E13C500F0805E10D
:100CC0003D5203E13E5201E120863750320807E1F0
:100CD000385205E1395203E13A5201E1208A006AB3
:100CE000016A005020120150211226502212275072
:100CF0002312006A2A34016E2B34026E2C34036EE8
:100D0000013602360336013602360336F80E011676
:100D100000502012015021120250221203502312BF
:100D200020C095F021C096F022C097F023500C0906
:100D3000986FE8CFA8F122C0A7F121C0A6F120C08A
:100D4000A5F105DF2050956F966B976B986BA96A9C
:100D500095C0A8FFA69CA69EA684F250006EF29EA7
:100D60000F01550EA76EAA0EA76EA6820050F212B2
:100D7000A6B2FED7A69421C096F022C097F023C059
:100D800098F00001996B976B986B996B010EA96EA7
:100D900096C0A8FFA69CA69EA684F250006EF29E66
:100DA0000F01550EA76EAA0EA76EA6820050F21272
:100DB000A6B2FED7A69422C096F023C097F00001F9
:100DC000986B996B976B986B996B020EA96E96C096
:100DD000A8FFA69CA69EA684F250006EF29E0F016C
:100DE000550EA76EAA0EA76EA6820050F212A6B2EA
:100DF000FED7A694010E0101AA6F000173DC3650E4
:100E0000040DF3CF95F061C0CEF060C0CDF05FC0AF
:100E1000CCF05EC0CBF0D26BD16BD06B95C0CFF075
:100E2000BEDC00C033F0426A416A2FC040F02EC0E1
:100E30003FF042C0A0F041C09FF040C09EF03FC0D4
:100E40009DF0A46BA36BA26B36C0A1F07EDC03C047
:100E500042F002C041F001C040F000C03FF0000C81
:100E6000242C03D09581959302D0959195830F0EF4
:100E70000101AA6F000136DC84928494808A848008
:100E800095A1839095B18380809695A3809495B326
:100E9000808483908094050E0101AA6F000122DCFA
:100EA00084928494808A848095A1839095B1838074
:100EB000809695A3809495B3808483908094050E4A
:100EC0000101AA6F00010EDC84928494808A8480E0
:100ED00095A1839095B18380809695A3809495B3D6
:100EE000808483908094050E0101AA6F000172EC4A
:100EF00003F084928494808A849095A1839095B124
:100F00008380809695A3809495B380848390809409
:100F1000050E0101AA6F000172EC03F0000C242CF5
:100F200003D0C381C39302D0C391C383060E006E66
:100F3000002EFED70000006AC2BF00800050010BE7
:100F4000016EE8A08492E8B08482C239006E00325B
:100F50000032030E00160050010B016EE8A08494CD
:100F6000E8B08484C239006E0032070E00160050CB
:100F7000010BE8A0809AE8B0808AC239006E0F0E9B
:100F800000160050010BE8A08490E8B08480C3A153
:100F90008390C3B183808096C3A38094C3B38084BD
:100FA00083908094060E006E002EFED70000C231A2
:100FB000006E003200321F0E00160050010B016E51
:100FC000E8A08492E8B08482C231006E00323F0E05
:100FD00000160050010B016EE8A08494E8B08484F0
:100FE000D890C231010BE8A0809AE8B0808AC25143
:100FF000010BE8A08490E8B08480C3A18390C3B1C2
:1010000083808096C3A38094C3B3808483908094AC
:10101000010E0101AA6F000172EC03F0000C010E39
:10102000246E1EDF280EC26F7ADF280EC26F77DFB4
:10103000280EC26F74DF060EC26F71DF0C0EC26F16
:101040006EDF010EC26F6BDF020E246E09DF280E09
:10105000C26F65DF280EC26F62DF280EC26F5FDFCE
:10106000060EC26F5CDF0C0EC26F59DF010EC26F3D
:1010700056DFA5EF12F0010E246EC26F50DF020E94
:10108000246E010EC26F4BDF020E0101AA6F000138
:1010900072EC03F0A7EF12F0BF51010A07E0030A58
:1010A0000EE0010A15E0070A1CE024D0010E246EB0
:1010B000800EC025FF0FC16FC26F31DF24D0010E3B
:1010C000246EC00EC025FF0FC16FC26F28DF1BD07A
:1010D000020E246E800EC025FF0FC16FC26F1FDF8E
:1010E00012D0020E246EC00EC025FF0FC16FC26F5A
:1010F00016DF09D0010E246E800EC025FF0FC16FD0
:10110000C26F0DDF00D0020E0101AA6F000172EC68
:1011100003F0000C242C03D0C581C59302D0C591E7
:10112000C583060E006E002EFED70000006AC4BF05
:1011300000800050010B016EE8A08492E8B0848228
:10114000C439006E00320032030E00160050010B4D
:10115000016EE8A08494E8B08484C439006E003243
:10116000070E00160050010BE8A0809AE8B0808AB4
:10117000C439006E0F0E00160050010BE8A08490D9
:10118000E8B08480C5A18390C5B183808086C5A363
:101190008094C5B3808483908094060E006E002EE8
:1011A000FED70000C431006E003200321F0E001660
:1011B0000050010B016EE8A08492E8B08482C43133
:1011C000006E00323F0E00160050010B016EE8A0C9
:1011D0008494E8B08484D890C431010BE8A0809A4C
:1011E000E8B0808AC451010BE8A08490E8B0848004
:1011F000C5A18390C5B183808086C5A38094C5B303
:10120000808483908094010E0101AA6F000172EC2A
:1012100003F0000CC2C003F0C1C0E9FFC2C0EAFF86
:10122000EF520FE0C2C003F0C151C12BD8B4C22BA2
:10123000E96E03C0EAFFEFCFC3F0C3C0C4F06ADFBA
:10124000E9D7000CC251016AC15D03E2C1C000F0E0
:101250000CD0006A080EC36FC1370036C251005C63
:10126000D8B0006E0136C32FF7D7000C6BC0EAFF71
:101270006AC0E9FFCBC0EFFFE92AD8B4EA2AEF6AD7
:101280006A2BD8B46B2B000C0150BFC0C1F0640EA8
:10129000C26FD8DF00C0BFF00150300E07E1C0A31D
:1012A0000CD0C0B70AD0C0B9200E03D0C097C099E7
:1012B000C081012601C0CBF0D9DFBFC0C1F00A0E4A
:1012C000C26FC0DF00C0BFF00150300E06E1C0B7F2
:1012D00008D0C0A106D0C0B9200E012601C0CBF0B5
:1012E000C5DF300EBF27BFC0CBF0C0DF000CEACF98
:1012F000C7F0E9CFC6F0C039F009C26FC227E20FCC
:10130000C36F320FC56FC0510F0BC327C327C5274B
:10131000E90FC46FC427C427BF390F0BC427C527E3
:10132000C437C537C51FC537BF510F0BC527C237D7
:10133000070EC16F0A0EC407C527FDE3C307C42704
:10134000FDE3C207C327FDE3C107C227FDE3EA6A45
:10135000C10EE96E070EC615C69DE926C50EE95CED
:10136000D8B4C68DEF50006E08E1C6BD06D0C6B930
:1013700013D0C6B702D0200E03D0C687C699300E50
:101380000026EACFC0F0E9CFBFF000C0CBF06EDF9F
:10139000C0C0EAFFBFC0E9FFEE50C6ADDFD7000C0A
:1013A000E950C36F3B0ECA6F9A0EC96FCA0EC86F61
:1013B000C76B0A0EC56FC2C0CEF0C1C0CDF0C0C0B1
:1013C000CCF0BFC0CBF0CAC0D2F0C9C0D1F0C8C009
:1013D000D0F0C7C0CFF0CFEC03F00150EFCFBFF09B
:1013E000ECCFC0F0ECCFC1F0ECCFC2F000520FE177
:1013F000C551010A0CE0C3510BE00F0BC55D01E0C4
:101400000CE2C3BF0AD0C3BD03D0200E02D0C36B11
:10141000300E002600C0CBF029DFCAC0CEF0C9C014
:10142000CDF0C8C0CCF0C7C0CBF0D26BD16BD06BC5
:101430000A0ECF6FCFEC03F003C0CAF002C0C9F0B0
:1014400001C0C8F000C0C7F0C52FB5D7000C010E11
:10145000BF6FC06F21DE9551FB0FD8B080D0050F54
:10146000F3EF0BF0EA6A960EE96EF2CFBFF0F29E50
:10147000270E016EF76A000E6FEC00F00A000900FB
:10148000F5CFEEFF012EFBD7BFBFF28EC26B960EDB
:10149000C16FC0DE64D0EA6A960EE96EF2CFBFF08B
:1014A000F29E270E016EF76A000E90EC00F00A0023
:1014B0000900F5CFEEFF012EFBD7BFBFF28EC26B46
:1014C000960EC16FA7DE4BD0EA6A960EE96EF2CF98
:1014D000BFF0F29E270E016EF76A000EB1EC00F02D
:1014E0000A000900F5CFEEFF012EFBD7BFBFF28E39
:1014F000C26B960EC16F8EDE32D0EA6A960EE96E2E
:10150000F2CFBFF0F29E270E016EF76A000ED2EC0A
:1015100000F00A000900F5CFEEFF012EFBD7BFBF98
:10152000F28EC26B960EC16F75DE19D0EA6A960E06
:10153000E96EF2CFBFF0F29E270E016EF76A000E41
:10154000F3EC00F00A000900F5CFEEFF012EFBD707
:10155000BFBFF28EC26B960EC16F5CDE00D029C099
:10156000CEF028C0CDF027C0CCF026C0CBF0D26B97
:10157000D16BD06B0A0ECF6FCFEC03F003C0C2F07B
:1015800002C0C1F001C0C0F000C0BFF0300EBF27E4
:10159000000EC023C123C223BFC0C4F0BBDD29C0DD
:1015A000CEF028C0CDF027C0CCF026C0CBF0D26B57
:1015B000D16BD06B0A0ECF6FCFEC03F0EFCFBFF043
:1015C000ECCFC0F0ECCFC1F0ECCFC2F0300EBF27B3
:1015D000000EC023C123C223BFC0C4F09BDD020E96
:1015E000BF6F010EC06F58DD4DA219D0EA6A960E8A
:1015F000E96EF2CFBFF0F29E290E016EF76A000E7F
:1016000014EC01F00A000900F5CFEEFF012EFBD724
:10161000BFBFF28EC26B960EC16FFCDD18D0EA6AB6
:10162000960EE96EF2CFBFF0F29E290E016EF76AB8
:10163000000E36EC01F00A000900F5CFEEFF012E96
:10164000FBD7BFBFF28EC26B960EC16FE3DD020EF9
:10165000BF6F250EC06F20DD6B6B430E6A6F0A0EE5
:10166000E96E2FC0C0F02EC0BFF041DEC26B430E4A
:10167000C16FD0DD030EBF6F010EC06F0DDDEA6AD2
:10168000960EE96EF2CFBFF0F29E290E016EF76A58
:10169000000E58EC01F00A000900F5CFEEFF012E14
:1016A000FBD7BFBFF28EC26B960EC16FB3DD030EC8
:1016B000BF6F0A0EC06FF0DC6B6B430E6A6F34C0F5
:1016C000BFF0110EC06FE0DDC26B430EC16FA2DD33
:1016D000030EBF6F250EC06FDFDC6B6B430E6A6FAE
:1016E00035C0BFF0130EC06FCFDDC26B430EC16FAC
:1016F00091DD040EBF6F010EC06FCEDCEA6A960E5C
:10170000E96EF2CFBFF0F29E290E016EF76A000E6D
:101710007AEC01F00A000900F5CFEEFF012EFBD7AD
:10172000BFBFF28EC26B960EC16F74DD040EBF6F29
:10173000010EC06FB1DC6B6B430E6A6F36C0BFF039
:10174000010EC06FA1DDC26B430EC16F63DD040EDD
:10175000BF6F0B0EC06FA0DC6B6B430E6A6F030E86
:10176000E96E3AC0C2F039C0C1F038C0C0F037C02D
:10177000BFF016DEC26B430EC16F4CDD040EBF6FAF
:10178000180EC06F89DC6B6B430E6A6F040EE96E36
:101790003EC0C2F03DC0C1F03CC0C0F03BC0BFF095
:1017A000FFDDC26B430EC16F35DD040EBF6F220E2D
:1017B000C06F72DC6B6B430E6A6F040EE96E42C041
:1017C000C2F041C0C1F040C0C0F03FC0BFF0E8DD92
:1017D0004B0ECB6F4BDD730ECB6F48DDC26B430EF0
:1017E000C16F18DD000CF2CF0DF0F29EE824F76A0D
:1017F000F7360B0FF66E180EF7220A00F550FA6E48
:101800000800F5500DBEF28EF96E64149614C814DB
:10181000FA142C15016A026A006A036A985102E1FF
:10182000975118E0100E996FD8909537963700367B
:1018300003369851035C02E19751005C07E397512E
:10184000005ED8A003069851035ED88001360236A8
:10185000992FEAD7000C96519E6F97C09FF098C0C1
:10186000A0F099510C09A16F9F8120509E13215027
:101870009F132250A0132350A113A1C0A8F1A0C010
:10188000A7F19FC0A6F19EC0A5F1A7EC05F0949228
:101890008B92C950060EC96EC730FEE394928B82BC
:1018A00094928B92C950020EC96EC730FEE3C950A4
:1018B000C96AC730FEE3C95095C0C9FFC730FEE30F
:1018C000C950C96AC730FEE39D6B9C6B9B6B9A6BDA
:1018D0009D5313E19C5311E19B5100080EE3C95045
:1018E0009AC0C9FFC730FEE3010E9A27D8B09B2BE0
:1018F000D8B49C2BD8B49D2BEBD7C9509AC0C9FF44
:10190000C730FEE394928B82140E0101AA6F00018E
:1019100072EC03F0000C050E0101AA6F000172ECDD
:1019200003F00101A15302E18B9001D08B809490D0
:10193000050EAA6F000172EC03F0000C0101A16B0F
:101940000001E9DF99C0A1F19AC0A2F19BC0A3F107
:1019500000019C510C090101A46FA2812050A11328
:101960002150A2132250A3132350A413A4C1A8F101
:10197000A3C1A7F1A2C1A6F1A1C1A5F10001A7ECE5
:1019800005F094928B92C950030EC96EC730FEE3E6
:1019900096C0A2F197C0A3F198C0A4F10101A56B74
:1019A000A36BA46BA56BC95096C0C9FFC730FEE3FB
:1019B00095C0A1F10101A26BA36BA46BC95095C0A6
:1019C000C9FFC730FEE3C950C96AC730FEE3A06B48
:1019D0009F6B9E6B9D6BA0531AE19F5318E19E5124
:1019E000000815E39D0E9D25E96E000E9E21EA6E0E
:1019F000C950C96AC730FEE3C9CFEFFF010E9D276A
:101A0000D8B09E2BD8B49F2BD8B4A02BE4D79492F7
:101A10008B82010EA16F00017EDF0101A06B9F6B25
:101A20009E6B9D6BA0531CE19F531AE19E510008D1
:101A300017E39D0E9D25E96E000E9E21EA6EEFCF05
:101A4000A1F1A1C1AAF1000186EC03F0010E010190
:101A50009D27D8B09E2BD8B49F2BD8B4A02BE2D70B
:101A60000001000C20509D6F215001099E6F22C083
:101A70009FF023500C09A06FE8CFA8F122C0A7F176
:101A80009EC0A6F19DC0A5F1A7EC05F098C0A0F0FE
:101A900097C09FF096C09EF095C09DF0A46BA36B7D
:101AA000A26B0A0EA16FA5EC03F000C099F0F00E36
:101AB00001249A6F3F0E02209B6F000E03209C6F43
:101AC00094928B92C950060EC96EC730FEE3949271
:101AD0008B82010E0101AA6F000172EC03F0949257
:101AE0008B92C950020EC96EC730FEE39BC09EF0B8
:101AF0009CC09FF0A06BA16B9F6BA06BA16BC950AA
:101B00009BC0C9FFC730FEE39AC09EF09BC09FF008
:101B10009CC0A0F0A16B9F6BA06BA16BC9509AC039
:101B2000C9FFC730FEE399C09DF09E6B9F6BA06B11
:101B3000C95099C0C9FFC730FEE326C09DF09E6B17
:101B40009F6BA06BC95026C0C9FFC730FEE354C0CD
:101B50009EF055C09FF0A06BA16B9F6BA06BA16B1B
:101B6000C95054C0C9FFC730FEE353C09EF054C0F3
:101B70009FF055C0A0F0A16B9F6BA06BA16BC950EB
:101B800053C0C9FFC730FEE352C09DF09E6B9F6BF0
:101B9000A06BC95052C0C9FFC730FEE350C09EF0D1
:101BA00051C09FF0A06BA16B9F6BA06BA16BC95044
:101BB00050C0C9FFC730FEE34FC09EF050C09FF039
:101BC00051C0A0F0A16B9F6BA06BA16BC9504FC01F
:101BD000C9FFC730FEE34EC09DF09E6B9F6BA06BAC
:101BE000C9504EC0C9FFC730FEE322C09EF023C0DB
:101BF0009FF0A06BA16B9F6BA06BA16BC95022C023
:101C0000C9FFC730FEE321C09EF022C09FF023C071
:101C1000A0F0A16B9F6BA06BA16BC95021C0C9FF45
:101C2000C730FEE320C09DF09E6B9F6BA06BC95038
:101C300020C0C9FFC730FEE394928B8220C09DF084
:101C400021C09EF022C09FF023500C09A06FE8CF66
:101C5000A8F122C0A7F121C0A6F120C0A5F1A7ECF0
:101C600005F02AEF0FF00101A16B000154DE20C046
:101C700095F021C096F022C097F023500C09986F80
:101C8000E8CFA8F122C0A7F121C0A6F120C0A5F19C
:101C9000A7EC05F0F2CF95F0F29E050EA96EA69C7A
:101CA000A69EA680A85095BFF28E556A546A536AC4
:101CB000526E54C099F053C098F052C097F0966B92
:101CC000F2CF9AF0F29E040EA96EA69CA69EA68064
:101CD000A8509ABFF28E9625526E000E9721536E31
:101CE000000E9821546E000E9921556E54C099F043
:101CF00053C098F052C097F0966BF2CF9AF0F29ED4
:101D0000030EA96EA69CA69EA680A8509ABFF28E2E
:101D10009625526E000E9721536E000E9821546E38
:101D2000000E9921556E52C095F053C096F054C0E4
:101D300097F055500809986FE8CFA8F154C0A7F163
:101D400053C0A6F152C0A5F1A7EC05F03650040D22
:101D5000F350516A506A4F6A4E6E51C0A0F050C0A5
:101D60009FF04FC09EF04EC09DF0A46BA36B2FC0A0
:101D7000A2F02EC0A1F0A5EC03F003C051F002C008
:101D800050F001C04FF000C04EF052504E2653505C
:101D90004F2254505022555051224EC095F04FC002
:101DA00096F050C097F051500A09986F010E955F58
:101DB000000E965B975B985B98C0A8F197C0A7F15F
:101DC00096C0A6F195C0A5F1A7EC05F093928A8282
:101DD00000D093928A924E505E5C956F4F505F5840
:101DE000966F50506059976F51506159986FA06F1E
:101DF00097C09FF096C09EF095C09DF0A46BA36B1A
:101E0000A26B640EA16FA5EC03F003C098F002C0B2
:101E100097F001C096F000C095F003C0CEF002C06C
:101E2000CDF001C0CCF000C0CBF061C0D2F060C0FA
:101E3000D1F05FC0D0F05EC0CFF0CFEC03F000C0B7
:101E400034F029C098F028C097F027C096F026C03B
:101E500095F008D6010E2626D8B0272AD8B4282A0D
:101E6000D8B4292A2650956F966B976B986B020E03
:101E7000A96E95C0A8FFA69CA69EA684F250006EEF
:101E8000F29E0F01550EA76EAA0EA76EA6820050F5
:101E9000F212A6B2FED7A6944E500001956F966B33
:101EA000976B986B030EA96E95C0A8FFA69CA69E83
:101EB000A684F250006EF29E0F01550EA76EAA0E78
:101EC000A76EA6820050F212A6B2FED7A6944FC00B
:101ED00096F050C097F051C098F00001996B976B45
:101EE000986B996B040EA96E96C0A8FFA69CA69E3F
:101EF000A684F250006EF29E0F01550EA76EAA0E38
:101F0000A76EA6820050F212A6B2FED7A69450C0C9
:101F100096F051C097F00001986B996B976B986B96
:101F2000996B050EA96E96C0A8FFA69CA69EA684D6
:101F3000F250006EF29E0F01550EA76EAA0EA76E0C
:101F4000A6820050F212A6B2FED7A69400011EEFA0
:101F50001AF0A50ECD6E3C0ECF6EB00ECE6E9D80EB
:101F60001C6A000C0101A16B0001D5DC20C09DF0B2
:101F7000215001099E6F22C09FF023500C09A06FD1
:101F8000E8CFA8F122C0A7F19EC0A6F120C0A5F11C
:101F9000A7EC05F098C0A0F097C09FF096C09EF007
:101FA00095C09DF0A46BA36BA26B0A0EA16FA5EC6C
:101FB00003F000C099F0F00E01249A6F3F0E02204A
:101FC0009B6F000E03209C6F94928B92C950030E5E
:101FD000C96EC730FEE39BC09EF09CC09FF0A06B13
:101FE000A16B9F6BA06BA16BC9509BC0C9FFC73091
:101FF000FEE39AC09EF09BC09FF09CC0A0F0A16B36
:102000009F6BA06BA16BC9509AC0C9FFC730FEE39C
:1020100099C09DF09E6B9F6BA06BC95099C0C9FF82
:10202000C730FEE3C950C96AC730FEE39C6B9B6BA7
:102030009A6BC9CF99F0C950C96AC730FEE39C6B4F
:102040009B6B9A6BC9CF99F09BC0A1F09AC0A0F08E
:1020500099C09FF09E6BC950C96AC730FEE3C95052
:102060009E25996F000E9F219A6F000EA0219B6FF5
:10207000000EA1219C6F9BC0A1F09AC0A0F099C056
:102080009FF09E6BC950C96AC730FEE3C9509E25B8
:10209000996F000E9F219A6F000EA0219B6F000E7A
:1020A000A1219C6F9CC059F09BC058F09AC057F07A
:1020B00099C056F0C950C96AC730FEE39C6B9B6B50
:1020C0009A6BC9CF99F09BC0A1F09AC0A0F099C0BB
:1020D0009FF09E6BC950C96AC730FEE3C9509E2568
:1020E000996F000E9F219A6F000EA0219B6F000E2A
:1020F000A1219C6F9BC0A1F09AC0A0F099C09FF055
:102100009E6BC950C96AC730FEE3C9509E25996FBE
:10211000000E9F219A6F000EA0219B6F000EA1213F
:102120009C6F9CC05DF09BC05CF09AC05BF099C056
:102130005AF0C950C96AC730FEE39C6B9B6B9A6B1F
:10214000C9CF99F09BC0A1F09AC0A0F099C09FF0B0
:102150009E6BC950C96AC730FEE3C9509E25996F6E
:10216000000E9F219A6F000EA0219B6F000EA121EF
:102170009C6F9BC0A1F09AC0A0F099C09FF09E6B8D
:10218000C950C96AC730FEE3C9509E25996F000E39
:102190009F219A6F000EA0219B6F000EA1219C6FC2
:1021A00094928B82140E0101AA6F000172EC03F06D
:1021B000010E0101A16F00018BEC0CF056C09DF0E7
:1021C00057C09EF058C09FF059500809A06FE8CF43
:1021D000A8F158C0A7F157C0A6F156C0A5F1A7ECC9
:1021E00005F05AC09DF05BC09EF05CC09FF05D5052
:1021F0000A09A06FE8CFA8F15CC0A7F15BC0A6F107
:102200005AC0A5F1A7EC05F099C09DF09AC09EF0C8
:102210009BC09FF09C510C09A06FE8CFA8F19BC018
:10222000A7F19AC0A6F199C0A5F1A7EC05F0000CA2
:1022300094928B92C950060EC96EC730FEE39492F9
:102240008B82010E0101AA6F000172EC03F09492DF
:102250008B92C950C70EC96EC730FEE394928B8231
:10226000000C296A286A276A266A556A546A536AE2
:10227000526A52505E5C956F53505F58966F54503F
:102280006059976F55506159986FA06F97C09FF034
:1022900096C09EF095C09DF0A46BA36BA26B640EDC
:1022A000A16FA5EC03F003C098F002C097F001C045
:1022B00096F000C095F003C0CEF002C0CDF001C092
:1022C000CCF000C0CBF061C0D2F060C0D1F05FC0F4
:1022D000D0F05EC0CFF0CFEC03F000C034F0020EBF
:1022E000A96EA86AA69CA69EA684F250006EF29ED5
:1022F0000F01550EA76EAA0EA76EA6820050F2120D
:10230000A6B2FED7A694030EA96EA86AA69CA69EA6
:10231000A684F2CF00F0F29E550EA76EAA0EA76E0D
:10232000A6820050F212A6B2FED7A694040EA96EA1
:10233000A86AA69CA69EA684F2CF00F0F29E550E37
:10234000A76EAA0EA76EA6820050F212A6B2FED702
:10235000A694050EA96EA86AA69CA69EA684F2CF96
:1023600000F0F29E550EA76EAA0EA76EA682005030
:10237000F212A6B2FED7A69420C095F0000121501B
:102380000109966F22C097F023500C09986FE8CF8F
:10239000A8F122C0A7F196C0A6F120C0A5F1A7EC34
:1023A00005F046DF20C095F021500309966F22C04A
:1023B00097F023500C09986FE8CFA8F122C0A7F13D
:1023C00096C0A6F120C0A5F1A7EC05F031DF8C0E78
:1023D000956FFA0E0101AA6F000172EC03F0952FC0
:1023E000F8D720C095F021C096F022C097F0235076
:1023F0000C09986FE8CFA8F122C0A7F121C0A6F17F
:1024000020C0A5F1A7EC05F075EF1BF095519703DF
:10241000F3CF01F0F4CF00F09803F350002696516B
:102420009703F3500020026E000CCD6A1C6A000C6A
:10243000F86AD09E078EEA6AE96A080EAF6EA60EA9
:10244000AC6E900EAB6E306A316A326A346A640EDA
:10245000356E4D904D924D94616B606B3F0E5F6E8B
:10246000F00E5E6EC180C182C184C196070EB46E4B
:10247000166A176A6A6B6B6B9484BD6A9588BA6A30
:10248000B76AB66AC19CC28CC28EC19EC280969841
:10249000800ED56ECD6A000ECA6E000ECB6EB16A8C
:1024A000040E956FFA0E0101AA6F000172EC03F0A1
:1024B000952FF8D7C69A949A94889496200EC66E53
:1024C000400EC76E000E0609CA6EFA0ECB6E9D82D4
:1024D0009D809D8AC00EF2120E0EC16E810E926E0C
:1024E000040E936E900E946E000E956E96909692DA
:1024F000969493928A9293908A9094928B828B90E6
:102500009490949A8B9A94968B8693908A80010EDD
:102510000101AA6F000172EC03F093908A900A0EF9
:102520000101AA6F000172EC03F08B8094902A0ED7
:10253000F66E060EF76E94EF03F08B9094900CEF0E
:1025400004F047EC06F00FEF08F03BEF08F0020E46
:10255000BF6F010EC06F4CEC08F0EA6A6C0EE96EBA
:10256000F2CF95F0F29E1C0E016EF76A000E9CEC05
:1025700001F00A000900F5CFEEFF012EFBD795BF51
:10258000F28EC26B6C0EC16F0AEC09F06B6B430EDE
:102590006A6F2AC0BFF01B0EC06F44EC09F0C26B1B
:1025A000430EC16F0AEC09F00C0E956FFA0E010193
:1025B000AA6F000172EC03F0952FF8D7956B27EC0A
:1025C0000AF0010E256E4DA0CDEF1CF04D90255068
:1025D0001E24016E000E1F20036E01C000F0050EC8
:1025E000035C04E1010E005CD8B4B6D1050E035CB7
:1025F00004E10F0E005CD8B4E6D1050E035C04E1E3
:102600000E0E005CD8B4F9D1050E035C04E1080E8F
:10261000005CD8B40CD2050E035C04E1090E005C2A
:10262000D8B42ED2050E035C04E10A0E005CD8B4C7
:102630004FD2010E035C04E1010E005CD8B477D2E6
:10264000010E035C04E10B0E005CD8B4C3D2010E92
:10265000035C04E10A0E005CD8B4EAD2010E035C0C
:1026600004E1090E005CD8B410D3010E035C04E150
:10267000080E005CD8B454D3010E035C04E10E0EC6
:10268000005CD8B467D3010E035C04E10F0E005C5C
:10269000D8B47AD3010E035C04E1050E005CD8B413
:1026A00083D3010E035C04E1060E005CD8B47CD336
:1026B000010E035C04E1020E005CD8B475D3010E78
:1026C000035C04E1030E005CD8B46ED3010E035C1E
:1026D00004E1040E005CD8B467D3040E035C04E18B
:1026E000010E005CD8B467D3040E035C04E1020E53
:1026F000005CD8B497D3040E035C04E1030E005CC5
:10270000D8B4A8D3040E035C05E1040E005CD8B471
:1027100042EF17F0040E035C05E1080E005CD8B42C
:102720005AEF17F0040E035C05E10E0E005CD8B4FE
:102730006EEF17F0040E035C05E10F0E005CD8B4D9
:1027400082EF17F0040E035C05E1090E005CD8B4BB
:1027500096EF17F0040E035C05E10A0E005CD8B496
:10276000BCEF17F0040E035C05E10B0E005CD8B45F
:10277000F6EF17F0040E035C05E10D0E005CD8B413
:1027800032EF18F0020E035C05E1050E005CD8B4D0
:102790004AEF18F0020E035C05E1060E005CD8B4A7
:1027A00058EF18F0020E035C05E1020E005CD8B48D
:1027B00070EF18F0020E035C05E1030E005CD8B464
:1027C00088EF18F0020E035C05E1080E005CD8B437
:1027D000A0EF18F0020E035C05E10E0E005CD8B409
:1027E000B5EF18F0020E035C05E10F0E005CD8B4E3
:1027F000CAEF18F0020E035C05E1090E005CD8B4C4
:10280000DFEF18F0020E035C05E10A0E005CD8B49D
:1028100005EF19F0020E035C05E10B0E005CD8B465
:102820003EEF19F0020E035C05E10C0E005CD8B41B
:1028300079EF19F0030E035C05E1010E005CD8B4DA
:1028400090EF19F0030E035C05E1060E005CD8B4AE
:102850000EEF1AF0030E035C05E1020E005CD8B423
:1028600056EF1AF0030E035C05E1030E005CD8B4CA
:1028700078EF1AF0030E035C05E1040E005CD8B497
:10288000F1EF1AF0030E035C05E10D0E005CD8B405
:102890006FEF1BF0030E035C05E1080E005CD8B47B
:1028A0007BEF1BF0030E035C05E10E0E005CD8B459
:1028B0007BEF1BF0030E035C05E10F0E005CD8B448
:1028C0007BEF1BF0030E035C05E1090E005CD8B43E
:1028D0007BEF1BF0030E035C05E10A0E005CD8B42D
:1028E0007BEF1BF0030E035C05E10B0E005CD8B41C
:1028F0007BEF1BF00B0E035C05E1100E005CD8B4FF
:10290000A4EF1BF00C0E035C05E1110E005CD8B4C3
:10291000B2EF1BF00D0E035C05E1120E005CD8B4A3
:10292000CFEF1BF00D0E035C05E1140E005CD8B474
:10293000E5EF1BF00E0E035C05E1130E005CD8B44E
:1029400027EF1CF00F0E035C05E1150E005CD8B4F8
:1029500097EF1CF0CDEF1CF0020EBF6F250EC06F7D
:102960004CEC08F02D0EC46F8AEC08F02FC096F0E6
:102970002EC095F0986B640E976F0AEC0CF001C0B6
:1029800032F02FC096F02EC095F0986B640E976FC2
:102990000AEC0CF000C031F031C0C1F00A0EC26F79
:1029A00022EC09F001C031F02FC096F02EC095F056
:1029B000986B0A0E976F0AEC0CF000C030F00F0E07
:1029C000256ECDEF1CF0020EBF6F250EC06F4CECD4
:1029D00008F0300E3224956FC46F8AEC08F0020EB6
:1029E000BF6F260EC06F4CEC08F02D0EC46F8AEC42
:1029F00008F00E0E256ECDEF1CF0020EBF6F260EF6
:102A0000C06F4CEC08F0300E3124956FC46F8AEC27
:102A100008F0020EBF6F270EC06F4CEC08F02D0EB1
:102A2000C46F8AEC08F0080E256ECDEF1CF0020E84
:102A3000BF6F250EC06F4CEC08F06B6B430E6A6FD6
:102A40000A0EE96E2FC0C0F02EC0BFF077EC09F07F
:102A5000C26B430EC16F0AEC09F0040EBF6F010E8A
:102A6000C06F4CEC08F02D0E6C6F6D6F6E6BC26B0F
:102A70006C0EC16F0AEC09F0090E256ECDEF1CF04B
:102A8000040EBF6F010EC06F4CEC08F06B6B430E71
:102A90006A6F36C0BFF0010EC06F44EC09F0C26B24
:102AA000430EC16F0AEC09F0040EBF6F0B0EC06F2E
:102AB0004CEC08F02D0E6C6F6D6F6E6F6F6BC26B10
:102AC0006C0EC16F0AEC09F00A0E256ECDEF1CF0FA
:102AD000040EBF6F0B0EC06F4CEC08F06B6B430E17
:102AE0006A6F030EE96E3AC0C2F039C0C1F038C057
:102AF000C0F037C0BFF0D0EC09F0C26B430EC16F1D
:102B00000AEC09F0040EBF6F180EC06F4CEC08F011
:102B10002D0E6C6F6D6F6E6F6F6F706BC26B6C0E86
:102B2000C16F0AEC09F00B0E256ECDEF1CF0956B12
:102B3000996B986B976B966B2BEC0CF0956B996B74
:102B4000986B020E976F966B2BEC0CF0010E956F45
:102B5000996B986B976B966B2BEC0CF0010E956F45
:102B6000996B986B020E976F966B2BEC0CF0020E24
:102B7000956F996B986B976B966B2BEC0CF0020E24
:102B8000956F996B986B976F966B2BEC0CF0030E0F
:102B9000956F996B986B976B966B2BEC0CF0030E03
:102BA000956F996B986B020E976F966B2BEC0CF0F0
:102BB000596A586A576A566A5D6A5C6A5B6A040EAB
:102BC0005A6E0101A16B00018BEC0CF0010E256E19
:102BD000CDEF1CF0040EBF6F180EC06F4CEC08F068
:102BE0006B6B430E6A6F040EE96E3EC0C2F03DC0CF
:102BF000C1F03CC0C0F03BC0BFF0D0EC09F0C26BEC
:102C0000430EC16F0AEC09F0040EBF6F0B0EC06FCC
:102C10004CEC08F02D0E6C6F6D6F6E6F6F6BC26BAE
:102C20006C0EC16F0AEC09F00A0E256ECDEF1CF098
:102C3000040EBF6F0B0EC06F4CEC08F06B6B430EB5
:102C40006A6F030EE96E3AC0C2F039C0C1F038C0F5
:102C5000C0F037C0BFF0D0EC09F0C26B430EC16FBB
:102C60000AEC09F0040EBF6F010EC06F4CEC08F0C7
:102C70002D0E6C6F6D6F6E6BC26B6C0EC16F0AECBC
:102C800009F0090E256ECDEF1CF0040EBF6F010E8A
:102C9000C06F4CEC08F06B6B430E6A6F36C0BFF030
:102CA000010EC06F44EC09F0C26B430EC16F0AEC19
:102CB00009F0020EBF6F270EC06F4CEC08F02D0E0E
:102CC000C46F8AEC08F02FC096F02EC095F0986B78
:102CD0000A0E976F0AEC0CF000C030F02FC096F08F
:102CE0002EC095F0986B640E976F0AEC0CF000C044
:102CF00031F031C0C1F00A0EC26F22EC09F001C000
:102D000031F02FC096F02EC095F0986B640E976F3F
:102D10000AEC0CF001C032F0080E256ECDEF1CF06D
:102D2000020EBF6F270EC06F4CEC08F0300E30243F
:102D3000956FC46F8AEC08F0020EBF6F260EC06F4D
:102D40004CEC08F02D0EC46F8AEC08F00E0E256EC8
:102D5000CDEF1CF0020EBF6F260EC06F4CEC08F0DA
:102D6000300E3124956FC46F8AEC08F0020EBF6FED
:102D7000250EC06F4CEC08F02D0EC46F8AEC08F0E5
:102D80000F0E256ECDEF1CF0020EBF6F250EC06F2B
:102D90004CEC08F0300E3224956FC46F8AEC08F0CA
:102DA000010E256ECDEF1CF0956B27EC0AF0010E9D
:102DB000256ECDEF1CF0986B976B966B1F0E956F81
:102DC0009C6B9B6B9A6B996B9EEC0CF0986B976B62
:102DD000966B1F0E956F9C6B9B6B020E9A6F996B97
:102DE0009EEC0CF0986B976B966B200E956F9C6B1E
:102DF0009B6B9A6B996B9EEC0CF0986B976B966B38
:102E0000200E956F9C6B9B6B020E9A6F996B9EECDC
:102E10000CF00101A16B00018BEC0CF0010E256E92
:102E2000CDEF1CF0010EBF6F0B0EC06F4CEC08F025
:102E30003E0EC46F8AEC08F0020EBF6F0B0EC06F1F
:102E40004CEC08F0200EC46F8AEC08F0060E256EDC
:102E5000CDEF1CF0020EBF6F0B0EC06F4CEC08F0F4
:102E60003E0EC46F8AEC08F0030EBF6F0B0EC06FEE
:102E70004CEC08F0200EC46F8AEC08F0020E256EB0
:102E8000CDEF1CF0030EBF6F0B0EC06F4CEC08F0C3
:102E90003E0EC46F8AEC08F0040EBF6F0B0EC06FBD
:102EA0004CEC08F0200EC46F8AEC08F0030E256E7F
:102EB000CDEF1CF0010E302630500A08D8B4306A2D
:102EC000020EBF6F270EC06F4CEC08F0300E30249E
:102ED000956FC46F8AEC08F0CDEF1CF0010E31261F
:102EE00031500A08D8B4316A020EBF6F260EC06F87
:102EF0004CEC08F0300E3124956FC46F8AEC08F06A
:102F0000CDEF1CF0010E322632500A08D8B4326AD6
:102F1000020EBF6F250EC06F4CEC08F0300E32244D
:102F2000956FC46F8AEC08F0CDEF1CF0362C03D0FF
:102F3000080E366E0BD03650080803E1100E366EC0
:102F400005D03650100802E1010E366E040EBF6F38
:102F5000010EC06F4CEC08F06B6B430E6A6F36C00D
:102F6000BFF0010EC06F44EC09F0C26B430EC16F9D
:102F70000AEC09F0CDEF1CF0375032080DE1385261
:102F80000BE1395209E13A5207E13A6A396A010E16
:102F9000386E440E376E0ED0375044080BE1382C93
:102FA00009D0395207E13A5205E13A6A396A386A7A
:102FB000320E376E040EBF6F0B0EC06F4CEC08F074
:102FC0006B6B430E6A6F030EE96E3AC0C2F039C0F4
:102FD000C1F038C0C0F037C0BFF0D0EC09F0C26B10
:102FE000430EC16F0AEC09F0CDEF1CF03B50900886
:102FF0000DE13C2C0BD03D5209E13E5207E13E6A07
:103000003D6A0F0E3C6EA00E3B6E10D03B50A008E8
:103010000DE13C500F080AE13D5208E13E5206E145
:103020003E6A3D6A010E3C6E900E3B6E040EBF6F11
:10303000180EC06F4CEC08F06B6B430E6A6F040EF9
:10304000E96E3EC0C2F03DC0C1F03CC0C0F03BC024
:10305000BFF0D0EC09F0C26B430EC16F0AEC09F06F
:10306000CDEF1CF0030EBF6F0B0EC06F4CEC08F0E1
:10307000200EC46F8AEC08F0020EBF6F0B0EC06FFB
:103080004CEC08F03E0EC46F8AEC08F00C0E256E76
:10309000CDEF1CF0010EBF6F0B0EC06F4CEC08F0B3
:1030A0003E0EC46F8AEC08F0060E256ECDEF1CF0C4
:1030B000010EBF6F0B0EC06F4CEC08F0200EC46FFA
:1030C0008AEC08F0020EBF6F0B0EC06F4CEC08F0DC
:1030D0003E0EC46F8AEC08F0020E256ECDEF1CF098
:1030E000020EBF6F0B0EC06F4CEC08F0200EC46FC9
:1030F0008AEC08F0030EBF6F0B0EC06F4CEC08F0AB
:103100003E0EC46F8AEC08F0030E256ECDEF1CF066
:10311000030EBF6F0B0EC06F4CEC08F0200EC46F97
:103120008AEC08F0040EBF6F0B0EC06F4CEC08F079
:103130003E0EC46F8AEC08F0040E256ECDEF1CF035
:10314000010E305E3050FF0802E1090E306E020EB3
:10315000BF6F270EC06F4CEC08F0300E3024956F17
:10316000C46F8AEC08F0CDEF1CF0010E315E3150D7
:10317000FF0802E1090E316E020EBF6F260EC06F0E
:103180004CEC08F0300E3124956FC46F8AEC08F0D7
:10319000CDEF1CF0010E325E3250FF0802E1090E45
:1031A000326E020EBF6F250EC06F4CEC08F0300E71
:1031B0003224956FC46F8AEC08F0CDEF1CF0362CEA
:1031C00003D0080E366E0BD03650080803E1100EFF
:1031D000366E05D03650100802E1010E366E040E30
:1031E000BF6F010EC06F4CEC08F06B6B430E6A6F43
:1031F00036C0BFF0010EC06F44EC09F0C26B430E45
:10320000C16F0AEC09F0CDEF1CF0375032080DE128
:1032100038520BE1395209E13A5207E13A6A396A08
:10322000010E386E440E376E0ED0375044080BE155
:10323000382C09D0395207E13A5205E13A6A396A25
:10324000386A320E376E040EBF6F0B0EC06F4CEC37
:1032500008F06B6B430E6A6F030EE96E3AC0C2F062
:1032600039C0C1F038C0C0F037C0BFF0D0EC09F0B1
:10327000C26B430EC16F0AEC09F08FD33B5090082C
:103280000DE13C2C0BD03D5209E13E5207E13E6A74
:103290003D6A0F0E3C6EA00E3B6E10D03B50A00856
:1032A0000DE13C500F080AE13D5208E13E5206E1B3
:1032B0003E6A3D6A010E3C6E900E3B6E040EBF6F7F
:1032C000180EC06F4CEC08F06B6B430E6A6F040E67
:1032D000E96E3EC0C2F03DC0C1F03CC0C0F03BC092
:1032E000BFF0D0EC09F0C26B430EC16F0AEC09F0DD
:1032F00054D3020EBF6F0B0EC06F4CEC08F0200EC3
:10330000C46F8AEC08F0030EBF6F0B0EC06F4CEC5D
:1033100008F03E0EC46F8AEC08F00D0E256E3DD30A
:10332000010EBF6FC06F4CEC08F0EA6A6C0EE96EDC
:10333000F2CF95F0F29E290E016EF76A000EB7ECFF
:1033400001F00A000900F5CFEEFF012EFBD795BF73
:10335000F28EC26B6C0EC16F0AEC09F0020EBF6FE9
:10336000010EC06F4CEC08F0EA6A6C0EE96EF2CF09
:1033700095F0F29E290E016EF76A000ED9EC01F06D
:103380000A000900F5CFEEFF012EFBD795BFF28EA4
:10339000C26B6C0EC16F0AEC09F0030EBF6F010E19
:1033A000C06F4CEC08F0EA6A6C0EE96EF2CF95F053
:1033B000F29E290E016EF76A000EFBEC01F00A0086
:1033C0000900F5CFEEFF012EFBD795BFF28EC26B41
:1033D0006C0EC16F0AEC09F0040EBF6F010EC06FD6
:1033E0004CEC08F0EA6A6C0EE96EF2CF95F0F29EB2
:1033F000290E016EF76A000E1DEC02F00A000900AA
:10340000F5CFEEFF012EFBD795BFF28EC26B6C0E8F
:10341000C16F0AEC09F0050E256EBFD293908A8029
:10342000010E0101AA6F000172EC03F093908A90E3
:10343000010E956F27EC0AF033EF0EF0956B27EC39
:103440000AF0020EBF6F010EC06F4CEC08F06B6B00
:10345000430E6A6F410EE96E55C0C2F054C0C1F010
:1034600053C0C0F052C0BFF0D0EC09F0C26B430EA5
:10347000C16F0AEC09F0200EC46F8AEC08F06B6B88
:10348000430E6A6F410EE96E51C0C2F050C0C1F0E8
:103490004FC0C0F04EC0BFF0D0EC09F0C26B430E7D
:1034A000C16F0AEC09F0010E256E77D2010E010101
:1034B000A16F00018BEC0CF020C095F021C096F0BC
:1034C00022C097F023500B09986FE8CFA8F122C0D3
:1034D000A7F121C0A6F120C0A5F1A7EC05F0A9EC49
:1034E0000FF0040E956F27EC0AF0100E256E55D2E2
:1034F0004DA249D0020E956F27EC0AF0696B686BFC
:10350000676B666B69C098F068C097F067C096F00B
:1035100066C095F0B2EC0FF0A9EC0FF0020EBF6F91
:10352000010EC06F4CEC08F06B6B430E6A6F410EDE
:10353000E96E59C0C2F058C0C1F057C0C0F056C0C3
:10354000BFF0D0EC09F0C26B430EC16F0AEC09F07A
:10355000200EC46F8AEC08F06B6B430E6A6F410E4D
:10356000E96E5DC0C2F05CC0C1F05BC0C0F05AC083
:10357000BFF0D0EC09F0C26B430EC16F0AEC09F04A
:10358000110E256E2DD0010EBF6FC06F4CEC08F0F0
:10359000EA6A6C0EE96EF2CF95F0F29E1A0E016E99
:1035A000F76A000E3FEC02F00A000900F5CFEEFFCB
:1035B000012EFBD795BFF28EC26B6C0EC16F0AEC69
:1035C00009F0080E956FFA0E0101AA6F000172EC66
:1035D00003F0952FF8D7956B27EC0AF0010E256EB6
:1035E000DCD1010EBF6FC06F4CEC08F0EA6A6C0EC4
:1035F000E96EF2CF95F0F29E290E016EF76A000E89
:1036000059EC02F00A000900F5CFEEFF012EFBD7BE
:1036100095BFF28EC26B6C0EC16F0AEC09F0020E00
:10362000BF6F010EC06F4CEC08F0EA6A6C0EE96ED9
:10363000F2CF95F0F29E290E016EF76A000E7BEC38
:1036400002F00A000900F5CFEEFF012EFBD795BF6F
:10365000F28EC26B6C0EC16F0AEC09F0030EBF6FE5
:10366000010EC06F4CEC08F0EA6A6C0EE96EF2CF06
:1036700095F0F29E290E016EF76A000E9DEC02F0A5
:103680000A000900F5CFEEFF012EFBD795BFF28EA1
:10369000C26B6C0EC16F0AEC09F0040EBF6F010E15
:1036A000C06F4CEC08F0EA6A6C0EE96EF2CF95F050
:1036B000F29E290E016EF76A000EBFEC02F00A00BE
:1036C0000900F5CFEEFF012EFBD795BFF28EC26B3E
:1036D0006C0EC16F0AEC09F00C0E256E5ED1030E64
:1036E000956F27EC0AF031EF11F0956B27EC0AF09B
:1036F000010E256E52D12F6A32C02EF02FC096F0E7
:103700002EC095F0986B0A0E976F06EC12F03150B0
:1037100001242E6E000E02202F6E2FC096F02EC0B8
:1037200095F0986B0A0E976F06EC12F0305001245A
:103730002E6E000E02202F6E47EC06F0956B27ECE4
:103740000AF0010E256E29D14D82956B27EC0AF007
:1037500015EC12F00101A16B00018BEC0CF0010ED5
:10376000256E1BD115EC12F059C065F058C064F0FD
:1037700057C063F056C062F065C098F064C097F01F
:1037800063C096F062C095F09C6B9B6B9A6B996BD3
:103790009EEC0CF0A9EC0FF0120E256EFED015EC8D
:1037A00012F065C098F064C097F063C096F062C0F4
:1037B00095F09C6B9B6B020E9A6F996B9EEC0CF0D4
:1037C000A9EC0FF0140E256EE8D015EC12F0010EE6
:1037D0006227D8B0632BD8B4642BD8B4652B65515D
:1037E0005D5C1DE30BE164515C5C19E307E163512F
:1037F0005B5C15E303E15A50625D11E265C098F02D
:1038000064C097F063C096F062C095F09C6B9B6BB0
:103810009A6B996B9EEC0CF0120E256E15D020C0A1
:1038200095F021C096F022C097F023500E09986FB2
:10383000E8CFA8F122C0A7F121C0A6F120C0A5F1D0
:10384000A7EC05F0130E256EA9EC0FF0A6D015EC31
:1038500012F0010E6627D8B0672BD8B4682BD8B405
:10386000692B6951295C4BE30BE16851285C47E304
:1038700007E16751275C43E303E12650665D3FE2C1
:1038800069C098F068C097F067C096F066C095F080
:10389000B2EC0FF0020EBF6F010EC06F4CEC08F0DF
:1038A0006B6B430E6A6F410EE96E59C0C2F058C08F
:1038B000C1F057C0C0F056C0BFF0D0EC09F0C26BE9
:1038C000430EC16F0AEC09F0200EC46F8AEC08F0B9
:1038D0006B6B430E6A6F410EE96E5DC0C2F05CC057
:1038E000C1F05BC0C0F05AC0BFF0D0EC09F0C26BB1
:1038F000430EC16F0AEC09F0110E256E15D020C0E1
:1039000095F021C096F022C097F023500F09986FD0
:10391000E8CFA8F122C0A7F121C0A6F120C0A5F1EF
:10392000A7EC05F0150E256EA9EC0FF036D015ECBE
:1039300012F00101A16B00018BEC0CF04D92010E15
:10394000BF6FC06F4CEC08F0EA6A6C0EE96EF2CF04
:1039500095F0F29E1A0E016EF76A000EE1EC02F08D
:103960000A000900F5CFEEFF012EFBD795BFF28EBE
:10397000C26B6C0EC16F0AEC09F0080E956FFA0E5F
:103980000101AA6F000172EC03F0952FF8D7956B37
:1039900027EC0AF0010E256E00D04DA43ED04D94C8
:1039A000100E255CFA0F39E2060F10EF1DF015EC32
:1039B00012F00101A16B00018BEC0CF04D92010E95
:1039C000BF6FC06F4CEC08F0EA6A6C0EE96EF2CF84
:1039D00095F0F29E1A0E016EF76A000EFBEC02F0F3
:1039E0000A000900F5CFEEFF012EFBD795BFF28E3E
:1039F000C26B6C0EC16F0AEC09F0080E956FFA0EDF
:103A00000101AA6F000172EC03F0952FF8D7956BB6
:103A100027EC0AF0010E256E00D0E3EF12F0030050
:103A2000F2CF0DF0F29EE824F76AF736450FF66EF6
:103A30003A0EF7220A00F550FA6E0800F5500DBE56
:103A4000F28EF96EAE39AE39AE39AE39AE39AE3925
:0200000400F00A
:09000000070800000000010001E6
:020000040030CA
:0E00000000240E0E000081000FC00FE00F4024
:00000001FF
;PIC18F458
;CRC=54AF  CREATED="18-Nov-14 13:07"
